:1002000011082050656368696E20536369656E63E9
:0302100065200066
:03022800DFFE22D4
:1001B200D3EF9400EE940040147D6E7C00ED1D7030
:0D01C200011CED4C70F7EF1F70E61E80E38E
:0101CF00220D
:1001E900D2B67F02120228C2B67F147E001201B273
:0701F900D2B67F1E020228AE
:10018C00E4FEFDEDC3940874809480501630B6FDE7
:10019C007F08120228EE25E0FE30B6010E20B6FDD7
:0501AC000D80E0AF062C
:0101B100222B
:100003001201E930B60302009130B6FD7F281202D7
:100013002812018C8F2312018C8F2412018C8F25BF
:1000230012018CA90712018C8F287F19120228E56F
:10003300232524FFE433FE7C00EF2525FFEC3EFE61
:10004300E92FFFEC3EFEEFB5280DECB50609AA2318
:10005300852426AB258927EA75F00A842430F5190F
:10006300EA75F00A84E5F02430F51A751B52751C05
:1000730048751D20751E20EB75F00A842430F51F8A
:0E008300EB75F00A84E5F02430F5207521437A
:01009100224C
:10015E001201D07FDC7E051201B21200037F8012E5
:10016E000214E4F522C3E52294097480948050EAC7
:0E017E0074192522F8E6FF12021E052280E702
:10011E00C2A58F807F017E0012012FD2A77F057EA0
:01012E0000D0
:10012F00D3EF9400EE940040257DC7EDD394007477
:10013F0080948040127C01ECD394007480948040B2
:0E014F00031C80F31D80E4EF1F70D51E80D2CC
:01015D00227F
:0A021400C2A7C2A612011EC2A72253
:0A021E00C2A7D2A612011EC2A72239
:1001D0007F381202147F0C1202147F061202147F61
:0901E000011202147F80020214D6
:0300000002009269
:0C009200787FE4F6D8FD7581280200D9C3
:10009E0002015EE493A3F8E493A34003F68001F219
:1000AE0008DFF48029E493A3F85407240CC8C33363
:1000BE00C4540F4420C8834004F456800146F6DF32
:1000CE00E4800B0102040810204080900200E47EC0
:1000DE00019360BCA3FF543F30E509541FFEE49327
:1000EE00A360010ECF54C025E060A840B8E493A3EE
:1000FE00FAE493A3F8E493A3C8C582C8CAC583CA19
:10010E00F0A3C8C582C8CAC583CADFE9DEE780BED0
:0102130000EA
:00000001FF
