:020000040800F2
:1000000020020020050100081D0500081F0500084A
:1000100023050008270500082B0500080000000044
:100020000000000000000000000000002F05000894
:100030003105000800000000330500083505000800
:100040001B0100081B0100081B0100081B01000820
:100050001B0100081B0100081B0100081B01000810
:100060001B0100081B0100081B0100081B01000800
:100070001B0100081B0100081B0100081B010008F0
:100080001B0100081B0100081B0100081B010008E0
:100090001B0100081B0100081B0100081B010008D0
:1000A0001B0100081B0100081B0100081B010008C0
:1000B0001B0100081B0100081B0100081B010008B0
:1000C0001B0100081B0100081B0100081B010008A0
:1000D0001B0100081B0100081B0100081B01000890
:1000E0001B0100081B0100081B010008DFF810D0ED
:1000F00001F062F80048004721010008AFF30080DA
:100100002002002005480047FEE7FEE7FEE7FEE785
:10011000FEE7FEE7FEE7FEE7FEE7FEE7ED0000088C
:1001200001F00AF800F042F800F084F8482000F0EE
:10013000CFF811A001F052F806E011A001F04EF83E
:100140004FF47A7000F0DEF800F0C3F90028F4D123
:1001500010E00F490F4800F090F90D4802780D4863
:1001600001780DA001F03AF800F039F84FF47A70F8
:1001700000F0C8F8EDE700005374617274200A00C3
:100180004448543131204572726F72200D0A0000CC
:10019000010000200000002074656D70202564209F
:1001A0002C68756D692025640D0A000008B50121D1
:1001B000082000F0C5FC4FF48070ADF8000010205E
:1001C0008DF8030003208DF802006946184800F0FE
:1001D0001BFA4FF48071164800F0C3FA08BD10B541
:1001E0004FF48071124800F0AFFAC0F10100C4B2C0
:1001F00022464FF480710E4800F0B7FA10BD10B5DA
:1002000000224FF480710A4800F0AFFA10BD10B51B
:1002100001221102064800F0A8FA10BD10B5FFF740
:10022000EEFF0A2000F06EF8FFF7F1FF10BD0000AE
:10023000000C014000B585B0012144F2040000F03B
:100240007FFC4FF40070ADF8100018208DF81300FB
:1002500003208DF8120004A91B4800F0D5F94FF4D3
:100260008060ADF8100004208DF8130004A9164832
:1002700000F0CAF94FF4E13000900020ADF804001E
:10028000ADF80600ADF80800ADF80C000C20ADF894
:100290000A0069460D4800F000FD01210B4800F0FE
:1002A0006AFD05B000BD70B504460D46E1B20748D1
:1002B00000F0C9FD00BF0548008800F0800000285C
:1002C000F9D0204670BD0000000801400038014010
:1002D00010B504466FF0040000F09DFEE11704EB3A
:1002E0005171C1F3C701234A11701046007800EB29
:1002F0004001C1EBC0104FF6FF7101EAC0001E497A
:10030000088010BD01461C4A12884A434FF0E02382
:100310005A6100229A6101221A6100BF4FF0E02267
:10032000106900F001021AB100F48032002AF5D001
:1003300000224FF0E0231A619A61704701460D4A8E
:1003400012784A434FF0E0235A6100229A61012259
:100350001A6100BF4FF0E022106900F001021AB1EB
:1003600000F48032002AF5D000224FF0E0231A6119
:100370009A617047020000200400002010B5644814
:10038000006820F47040624908600846006840F444
:100390004050086000205F4908601420FFF7B2FF5A
:1003A00001205D49C1F8AC011E20FFF7C7FF10BD59
:1003B00010B500245648006820F470405449086085
:1003C0000846006840F40040086004E0601CC4B2C5
:1003D0000120FFF7B3FF4F488038006808B1642C54
:1003E000F4DB642C01DB012010BD002404E0601C60
:1003F000C4B20120FFF7A2FF46488038006808B960
:10040000642CF4DB642C01DB0120EDE70020EBE73A
:1004100010B5002404E0601CC4B20120FFF78EFF79
:100420003C488038006808B1642CF4DB002404E008
:10043000601CC4B20120FFF781FF36488038006895
:1004400008B9642CF4DB2820FFF778FF31488038A6
:10045000006808B1012010BD0020FCE770B5002441
:10046000002506E06006040EFFF7D2FF0443681C77
:10047000C5B2082DF6DB204670BD7CB505460E469C
:10048000FFF77CFFFFF794FFF8B9002405E0FFF7C2
:10049000E5FF0DF80400601CC4B2052CF7DB9DF8E5
:1004A00000009DF8011008449DF8021008449DF8D2
:1004B000031008449DF80410884208D19DF80000FC
:1004C00030709DF80200287001E001207CBD002002
:1004D000FCE708B50121042000F032FB4FF4006076
:1004E000ADF8000010208DF8030003208DF8020005
:1004F00069460748001F00F087F84FF40061044880
:10050000001F00F02EF9FFF739FFFFF751FF08BD7C
:1005100004080140AC01214200002142704700BFA5
:10052000FEE700BFFEE700BFFEE700BFFEE7704743
:10053000704770477047000010B50446C649601AFE
:100540008C422FD009DCC548204480B1B0F5806FC3
:1005500016D0B0F5006F4AD11BE0B0F5806F2AD0FD
:10056000B0F5006F30D0B0F5406F40D135E00121DB
:10057000042000F0FFFA0021042000F0FBFA37E02D
:100580000121082000F0F6FA0021082000F0F2FA1C
:100590002EE00121102000F0EDFA0021102000F0E3
:1005A000E9FA25E00121202000F0E4FA00212020D2
:1005B00000F0E0FA1CE00121402000F0DBFA00210D
:1005C000402000F0D7FA13E00121802000F0D2FA99
:1005D0000021802000F0CEFA0AE00121080200F09C
:1005E000C9FA00214FF4807000F0C4FA00E000BFA7
:1005F00000BF10BD10B50121084600F0BBFA002174
:10060000012000F0B7FA10BD2DE9F04102460025A7
:100610000026002000230024002791F803C00CF0DE
:100620000F0591F803C00CF0100CBCF1000F03D0C3
:1006300091F802C04CEA050591F800C0BCF1000F2A
:1006400031D0146800202BE04FF0010C0CFA00F3BD
:10065000B1F800C00CEA03069E4220D183004FF09F
:100660000F0C0CFA03F7BC4305FA03FC4CEA040434
:1006700091F803C0BCF1280F06D14FF0010C0CFA21
:1006800000FCC2F814C00AE091F803C0BCF1480FA6
:1006900005D14FF0010C0CFA00FCC2F810C0401C50
:1006A0000828D1D31460B1F800C0BCF1FF0F34DDCD
:1006B000546800202EE000F1080C4FF0010808FA01
:1006C0000CF3B1F800C00CEA03069E4221D183006E
:1006D0004FF00F0C0CFA03F7BC4305FA03FC4CEA8D
:1006E000040491F803C0BCF1280F05D100F1080CF7
:1006F00008FA0CF8C2F8148091F803C0BCF1480F56
:1007000007D100F1080C4FF0010808FA0CF8C2F804
:100710001080401C0828CED35460BDE8F0814FF60D
:10072000FF710180022181700421C170704702466F
:10073000002093680B400BB1012000E000207047BF
:100740000146886880B2704702460020D3680B409B
:100750000BB1012000E0002070470146C86880B25C
:10076000704701617047416170470AB1016100E063
:1007700041617047C16070474FF480320A43826123
:100780008161826182698269704702460020344B30
:1007900018684FF68073184040EA02100843304B47
:1007A000186070472F49C8617047F0B50A460023AA
:1007B0000024002100252A4E7168C0F3034583B24E
:1007C00000F44016B6F5401F08D121F07061244EA8
:1007D000766826F07066224F7E6012E000F4801684
:1007E000B6F5801F06D1032606FA05F4A14341F0B1
:1007F000706106E0460D360103FA06F6B14341F09A
:10080000706122B1460D360103FA06F63143144EEB
:100810007160F0BD30B500228B071C0F0F2303FA67
:1008200004F20F4B08338C1053F8243093430C4CD4
:1008300008348D1044F8253023468C1053F82430AA
:100840008C07240F00FA04F42343054C08348D1060
:1008500044F8253030BD00000014014000F8FEBF10
:100860000000014000002042DE48006840F0010026
:10087000DC49086008464068DB490840D9494860BF
:1008800008460068D9490840D6490860084600680B
:1008900020F4802008600846406820F4FE0048608C
:1008A000002088607047CF49096821F48031CD4A23
:1008B00011601146096821F480211160B0F5803F74
:1008C00003D0B0F5802F0ED106E0C649096841F487
:1008D0008031C44A116007E0C249096841F4A0218F
:1008E000C04A116000E000BF00BF704710B501466C
:1008F0000022002300204A11012A02D1B94C2368AA
:1009000006E0022A02D1B74C236A01E0B54C636AC3
:1009100001F01F02012494401C400CB1012000E0B2
:10092000002010BD38B5002000900024002500BF35
:100930003120FFF7DBFF05460098401C00901DB9F1
:100940000098B0F5A06FF3D13120FFF7CFFF08B1C9
:10095000012400E00024204638BD01460020A14AC1
:10096000106820F0F80040EAC10010607047A0490C
:1009700008607047024600209A4B586820F47C10AB
:1009800042EA01031843974B58607047984908663C
:10099000704701460020934A506820F00300084346
:1009A000506070478F48406800F00C007047014667
:1009B00000208C4A506820F0F000084350607047D7
:1009C00001460020874A506820F4E06008435060E8
:1009D000704701460020834A506820F4605040EA86
:1009E000C1005060704729B17E4A527A02437D4B64
:1009F0005A7204E07B4A527A82437A4B5A727047A9
:100A00007B49D8310860704701460020754A50681C
:100A100020F440400843506070470021714A203262
:100A20001170704A82F82010012802D004280AD1DF
:100A300004E001216B4A2032117005E00521694A6A
:100A40002032117000E000BF00BF704769490860A4
:100A500070476449096A0143624A116270476549F7
:100A600044390860704730B500210022002400237B
:100A70005C4D6D6805F00C0121B1042905D00829F1
:100A800023D105E05C4D056022E05B4D05601FE071
:100A9000544D6D6805F47012022505EB9242514DDC
:100AA0006D6805F480341CB9544D554305600BE066
:100AB0004C4D6D6805F400351DB1504D5543056032
:100AC00002E04D4D5543056002E04B4D056000BF0F
:100AD00000BF444D6D6805F0F0010909484D6B5C9D
:100AE0000568DD4045603F4D6D6805F4E061090A29
:100AF000434D6B5C4568DD4085603A4D6D6805F49B
:100B00006051C90A3E4D6B5C4568DD40C560354D9E
:100B10006D6805F44041890B3A4D6B5CC568B5FBC7
:100B2000F3F5056130BD29B12E4A526902432D4BC0
:100B30005A6104E02B4A526982432A4B5A6170473A
:100B400029B1284A92690243264B9A6104E0254A5A
:100B500092698243234B9A61704729B1214AD26935
:100B60000243204BDA6104E01E4AD26982431D4BE6
:100B7000DA61704729B11B4AD2680243194BDA6027
:100B800004E0184AD2688243164BDA60704729B1F4
:100B9000144A12690243134B1A6104E0114A1269A4
:100BA0008243104B1A617047124940390860704700
:100BB0000F49C86470470B49C87170470948406ABB
:100BC00040F0807007494862704701460020054A9E
:100BD00092680A400AB1012000E0002070470149F4
:100BE00088727047001002400000FFF8FFFFF6FE19
:100BF000000042428004424200127A0000093D0097
:100C0000060000201600002010B50446D749601ADF
:100C10008C422BD006DCD648204498B1B0F5806FCA
:100C200038D119E0B0F5806F2AD0B0F56C4F31D1D2
:100C300001218803FFF79EFF00214FF48040FFF75A
:100C400099FF28E001214804FFF7A1FF00214FF49C
:100C50000030FFF79CFF1EE001218804FFF797FF9B
:100C600000214FF48020FFF792FF14E00121C80417
:100C7000FFF78DFF00214FF40020FFF788FF0AE007
:100C800001210805FFF783FF00214FF48010FFF7D3
:100C90007EFF00E000BF00BF10BD2DE9F04786B029
:100CA00005460E460024A24600BF00BF00272F467F
:100CB0002C8A4CF6FF700440F08804432C82AC89E7
:100CC0004EF6F3100440B088318908437189084317
:100CD0000443AC81AC8A4FF6FF400440B089044322
:100CE000AC8201A8FFF7BFFEA248874202D1DDF81F
:100CF00010A001E0DDF80CA00AEBCA0000EB0A101E
:100D000031688900B0FBF1F86420B8FBF0F0040111
:100D10002009642101FB1089322000EB0910B0FB8F
:100D2000F1F000F00F0004432C8106B0BDE8F0871D
:100D30004FF41651016000218180C18001810C2196
:100D4000418100218181704710B502460020108A40
:100D50004FF2FF0318400B884C8823438C882343B1
:100D6000CC8823431843108210BD002101804180AC
:100D70008180C180704721B1828942F40052828112
:100D800004E082894DF6FF731A4082817047F0B506
:100D9000034600240026002500201846C1F3421413
:100DA00001F01F06012707FA06F5012C01D10C30CE
:100DB00004E0022C01D1103000E014301AB10768B1
:100DC0002F43076002E00768AF430760F0BD1AB128
:100DD000838A0B43838202E0838A8B43838270473A
:100DE000028A4FF6F0731A400282028A0A43028294
:100DF000704782894FF2FF731A40828182890A43C9
:100E00008281704721B1828942F00202828104E02E
:100E100082894FF6FD731A4082817047028A4FF62D
:100E2000DF731A400282028A0A430282704721B1AC
:100E3000028A42F48042028204E0028A4BF6FF7387
:100E40001A4002827047C1F308028280704701464F
:100E50008888C0F308007047818941F001018181D1
:100E60007047028BD2B20283028B42EA01220283D4
:100E70007047028B02F47F420283028B0A43028393
:100E8000704721B1828A42F02002828204E0828A85
:100E90004FF6DF731A408282704721B1828A42F096
:100EA0001002828204E0828A4FF6EF731A40828237
:100EB000704721B1828A42F00802828204E0828A6D
:100EC0004FF6F7731A4082827047828A4FF6FB739F
:100ED0001A408282828A0A438282704721B1828AC2
:100EE00042F00202828204E0828A4FF6FD731A40C9
:100EF000828270470246002013880B400BB101200C
:100F000000E000207047CA430280704770B5024677
:100F10000B460024002100250020C3F3421503F0F6
:100F20001F01012606FA01F1012D02D196893140F7
:100F300006E0022D02D1168A314001E0968A314046
:100F40001C12012606FA04F41688344011B10CB1C3
:100F5000012000E0002070BD10B5002200230A121D
:100F600001249440A3B2DC43048010BD004C004037
:100F700000BCFFBF0038014031490143314A1160D4
:100F8000704770B5002100230F22C47804B32D4CA4
:100F9000246804F4E064C4F5E064210AC1F10403A8
:100FA000CA40447804FA03F18478144021430901CB
:100FB000254C0678A155047804F01F050124AC40A7
:100FC00005786D11AD0005F1E025C5F8004109E097
:100FD000047804F01F050124AC401C4D06787611FE
:100FE00045F8264070BD1A4A0A400243154B1B1FA4
:100FF0001A60704739B1134A121D12680243114B2F
:101000001B1D1A6006E00F4A121D126882430D4B29
:101010001B1D1A607047042808D14FF0E0210969B0
:1010200041F004014FF0E022116107E04FF0E021B0
:10103000096921F004014FF0E022116170470000BE
:101040000000FA050CED00E000E400E080E100E0C3
:1010500080FFFF1F0CB500200190009047480068FA
:1010600040F480304549086000BF4448006800F4FF
:10107000003000900198401C0190009818B9019828
:10108000B0F5A06FF1D13D48006800F4003010B118
:101090000120009001E0002000900098012844D138
:1010A0003748006840F0100035490860084600687D
:1010B00020F0030008600846006840F00200086065
:1010C0002E4840682D4948600846406848600846F8
:1010D000406840F4806048600846406820F47C1016
:1010E00048600846406840F4E810486008460068D8
:1010F00040F08070086000BF2048006800F0007079
:101100000028F9D01D48406820F003001B494860C2
:101110000846406840F00200486000BF1748406839
:1011200000F00C000828F9D101E000BFFEE70CBD7B
:1011300010B5FFF78FFF10BD10B51048006840F0E4
:1011400001000E490860084640680E4908400B49F6
:101150004860084600680C4908400849086008468D
:10116000006820F4802008600846406820F4FE00F3
:10117000486000208860FFF7DBFF10BD00100240D0
:10118000002002400000FFF8FFFFF6FE30B50B46DE
:10119000014600202022012409E021FA02F59D42A7
:1011A00005D303FA02F5491B04FA02F52844151E7B
:1011B000A2F10102F1DC30BD064C074D06E0E0680B
:1011C00040F0010394E8070098471034AC42F6D38E
:1011D000FEF790FF70130008901300080FB4054B42
:1011E00010B503A9044A029800F018F810BC5DF885
:1011F00014FB0000A70200081C00002002E008C841
:10120000121F08C1002AFAD170477047002001E080
:1012100001C1121F002AFBD1704700002DE9FF4FCA
:1012200089B09B460446002506E025280BD05A4687
:101230000B999047641C6D1C20780028F5D10DB0E7
:101240002846BDE8F08F0027B8460122474900E054
:10125000074314F8013F203B02FA03F00842F7D19C
:1012600020782E2819D114F8010F47F004072A28F6
:101270000ED06FF02F022078A0F1300109290CD890
:1012800008EB880102EB410100EB0108641CF2E766
:101290000A98641C50F8048B0A9020780028CED05D
:1012A000642808D0692806D075281ED05A460B99A4
:1012B00090476D1C58E00A994FF00A0901C90A913C
:1012C000002802DA40422D2102E0390504D52B2105
:1012D0008DF82010012103E0F90704D02021F7E761
:1012E0008A4608AE0DE00021FAE70A994FF00A0994
:1012F00001C90A91F7E74946FFF748FF303106F880
:10130000011D0028F7D1ADEB060000F12009780798
:1013100001D44FF00108C84502DDA8EB090000E048
:1013200000208046002706E008A85A46C05D0B99B9
:1013300090476D1C7F1C5745F6DB04E030205A4671
:101340000B9990476D1CB8F10001A8F10108F5DC7C
:1013500005E016F8010B5A460B9990476D1CB9F140
:101360000001A9F10109F4DC641C65E7092801000A
:10137000901300080000002020000000FC1100086D
:10138000B013000820000020000200000C1200082A
:101390000000000000000000000001020304010240
:1013A0000304060708090204060800000000000004
:0400000508000105E9
:00000001FF
